{
  "address": "0xa513E6E4b8f2a923D98304ec87F64353C4D5C853",
  "abi": [
    {
      "inputs": [
        {
          "internalType": "uint256",
          "name": "_mintFee",
          "type": "uint256"
        },
        {
          "internalType": "address payable",
          "name": "_mintFeeRecipient",
          "type": "address"
        },
        {
          "internalType": "contract EditionMetadataRenderer",
          "name": "_editionMetadataRenderer",
          "type": "address"
        },
        {
          "internalType": "contract DropMetadataRenderer",
          "name": "_dropMetadataRenderer",
          "type": "address"
        }
      ],
      "stateMutability": "nonpayable",
      "type": "constructor"
    },
    {
      "anonymous": false,
      "inputs": [
        {
          "indexed": true,
          "internalType": "address",
          "name": "creator",
          "type": "address"
        },
        {
          "indexed": true,
          "internalType": "address",
          "name": "editionContractAddress",
          "type": "address"
        },
        {
          "indexed": false,
          "internalType": "uint256",
          "name": "editionSize",
          "type": "uint256"
        }
      ],
      "name": "CreatedDrop",
      "type": "event"
    },
    {
      "anonymous": false,
      "inputs": [
        {
          "indexed": true,
          "internalType": "address",
          "name": "previousOwner",
          "type": "address"
        },
        {
          "indexed": true,
          "internalType": "address",
          "name": "newOwner",
          "type": "address"
        }
      ],
      "name": "OwnershipTransferred",
      "type": "event"
    },
    {
      "inputs": [
        {
          "internalType": "string",
          "name": "name",
          "type": "string"
        },
        {
          "internalType": "string",
          "name": "symbol",
          "type": "string"
        },
        {
          "internalType": "address",
          "name": "defaultAdmin",
          "type": "address"
        },
        {
          "internalType": "uint64",
          "name": "editionSize",
          "type": "uint64"
        },
        {
          "internalType": "uint16",
          "name": "royaltyBPS",
          "type": "uint16"
        },
        {
          "internalType": "address payable",
          "name": "fundsRecipient",
          "type": "address"
        },
        {
          "internalType": "bytes[]",
          "name": "setupCalls",
          "type": "bytes[]"
        },
        {
          "internalType": "contract IMetadataRenderer",
          "name": "metadataRenderer",
          "type": "address"
        },
        {
          "internalType": "bytes",
          "name": "metadataInitializer",
          "type": "bytes"
        }
      ],
      "name": "createAndConfigureDrop",
      "outputs": [
        {
          "internalType": "address payable",
          "name": "",
          "type": "address"
        }
      ],
      "stateMutability": "nonpayable",
      "type": "function"
    },
    {
      "inputs": [
        {
          "internalType": "string",
          "name": "name",
          "type": "string"
        },
        {
          "internalType": "string",
          "name": "symbol",
          "type": "string"
        },
        {
          "internalType": "address",
          "name": "defaultAdmin",
          "type": "address"
        },
        {
          "internalType": "uint64",
          "name": "editionSize",
          "type": "uint64"
        },
        {
          "internalType": "uint16",
          "name": "royaltyBPS",
          "type": "uint16"
        },
        {
          "internalType": "address payable",
          "name": "fundsRecipient",
          "type": "address"
        },
        {
          "components": [
            {
              "internalType": "uint104",
              "name": "publicSalePrice",
              "type": "uint104"
            },
            {
              "internalType": "uint32",
              "name": "maxSalePurchasePerAddress",
              "type": "uint32"
            },
            {
              "internalType": "uint64",
              "name": "publicSaleStart",
              "type": "uint64"
            },
            {
              "internalType": "uint64",
              "name": "publicSaleEnd",
              "type": "uint64"
            },
            {
              "internalType": "uint64",
              "name": "presaleStart",
              "type": "uint64"
            },
            {
              "internalType": "uint64",
              "name": "presaleEnd",
              "type": "uint64"
            },
            {
              "internalType": "bytes32",
              "name": "presaleMerkleRoot",
              "type": "bytes32"
            }
          ],
          "internalType": "struct IERC721Drop.SalesConfiguration",
          "name": "saleConfig",
          "type": "tuple"
        },
        {
          "internalType": "string",
          "name": "metadataURIBase",
          "type": "string"
        },
        {
          "internalType": "string",
          "name": "metadataContractURI",
          "type": "string"
        }
      ],
      "name": "createDrop",
      "outputs": [
        {
          "internalType": "address",
          "name": "",
          "type": "address"
        }
      ],
      "stateMutability": "nonpayable",
      "type": "function"
    },
    {
      "inputs": [
        {
          "internalType": "string",
          "name": "name",
          "type": "string"
        },
        {
          "internalType": "string",
          "name": "symbol",
          "type": "string"
        },
        {
          "internalType": "address",
          "name": "defaultAdmin",
          "type": "address"
        },
        {
          "internalType": "uint64",
          "name": "editionSize",
          "type": "uint64"
        },
        {
          "internalType": "uint16",
          "name": "royaltyBPS",
          "type": "uint16"
        },
        {
          "internalType": "address payable",
          "name": "fundsRecipient",
          "type": "address"
        },
        {
          "components": [
            {
              "internalType": "uint104",
              "name": "publicSalePrice",
              "type": "uint104"
            },
            {
              "internalType": "uint32",
              "name": "maxSalePurchasePerAddress",
              "type": "uint32"
            },
            {
              "internalType": "uint64",
              "name": "publicSaleStart",
              "type": "uint64"
            },
            {
              "internalType": "uint64",
              "name": "publicSaleEnd",
              "type": "uint64"
            },
            {
              "internalType": "uint64",
              "name": "presaleStart",
              "type": "uint64"
            },
            {
              "internalType": "uint64",
              "name": "presaleEnd",
              "type": "uint64"
            },
            {
              "internalType": "bytes32",
              "name": "presaleMerkleRoot",
              "type": "bytes32"
            }
          ],
          "internalType": "struct IERC721Drop.SalesConfiguration",
          "name": "saleConfig",
          "type": "tuple"
        },
        {
          "internalType": "string",
          "name": "description",
          "type": "string"
        },
        {
          "internalType": "string",
          "name": "animationURI",
          "type": "string"
        },
        {
          "internalType": "string",
          "name": "imageURI",
          "type": "string"
        }
      ],
      "name": "createEdition",
      "outputs": [
        {
          "internalType": "address",
          "name": "",
          "type": "address"
        }
      ],
      "stateMutability": "nonpayable",
      "type": "function"
    },
    {
      "inputs": [],
      "name": "dropMetadataRenderer",
      "outputs": [
        {
          "internalType": "contract DropMetadataRenderer",
          "name": "",
          "type": "address"
        }
      ],
      "stateMutability": "view",
      "type": "function"
    },
    {
      "inputs": [],
      "name": "editionMetadataRenderer",
      "outputs": [
        {
          "internalType": "contract EditionMetadataRenderer",
          "name": "",
          "type": "address"
        }
      ],
      "stateMutability": "view",
      "type": "function"
    },
    {
      "inputs": [],
      "name": "mintFee",
      "outputs": [
        {
          "internalType": "uint256",
          "name": "",
          "type": "uint256"
        }
      ],
      "stateMutability": "view",
      "type": "function"
    },
    {
      "inputs": [],
      "name": "mintFeeRecipient",
      "outputs": [
        {
          "internalType": "address payable",
          "name": "",
          "type": "address"
        }
      ],
      "stateMutability": "view",
      "type": "function"
    },
    {
      "inputs": [],
      "name": "owner",
      "outputs": [
        {
          "internalType": "address",
          "name": "",
          "type": "address"
        }
      ],
      "stateMutability": "view",
      "type": "function"
    },
    {
      "inputs": [],
      "name": "renounceOwnership",
      "outputs": [],
      "stateMutability": "nonpayable",
      "type": "function"
    },
    {
      "inputs": [
        {
          "internalType": "uint256",
          "name": "_mintFee",
          "type": "uint256"
        }
      ],
      "name": "setMintFee",
      "outputs": [],
      "stateMutability": "nonpayable",
      "type": "function"
    },
    {
      "inputs": [
        {
          "internalType": "address payable",
          "name": "_mintFeeRecipient",
          "type": "address"
        }
      ],
      "name": "setmintFeeRecipient",
      "outputs": [],
      "stateMutability": "nonpayable",
      "type": "function"
    },
    {
      "inputs": [
        {
          "internalType": "string",
          "name": "name",
          "type": "string"
        },
        {
          "internalType": "string",
          "name": "symbol",
          "type": "string"
        },
        {
          "internalType": "address",
          "name": "defaultAdmin",
          "type": "address"
        },
        {
          "internalType": "address payable",
          "name": "fundsRecipient",
          "type": "address"
        },
        {
          "internalType": "uint64",
          "name": "editionSize",
          "type": "uint64"
        },
        {
          "internalType": "uint16",
          "name": "royaltyBPS",
          "type": "uint16"
        },
        {
          "components": [
            {
              "internalType": "uint104",
              "name": "publicSalePrice",
              "type": "uint104"
            },
            {
              "internalType": "uint32",
              "name": "maxSalePurchasePerAddress",
              "type": "uint32"
            },
            {
              "internalType": "uint64",
              "name": "publicSaleStart",
              "type": "uint64"
            },
            {
              "internalType": "uint64",
              "name": "publicSaleEnd",
              "type": "uint64"
            },
            {
              "internalType": "uint64",
              "name": "presaleStart",
              "type": "uint64"
            },
            {
              "internalType": "uint64",
              "name": "presaleEnd",
              "type": "uint64"
            },
            {
              "internalType": "bytes32",
              "name": "presaleMerkleRoot",
              "type": "bytes32"
            }
          ],
          "internalType": "struct IERC721Drop.SalesConfiguration",
          "name": "saleConfig",
          "type": "tuple"
        },
        {
          "internalType": "contract IMetadataRenderer",
          "name": "metadataRenderer",
          "type": "address"
        },
        {
          "internalType": "bytes",
          "name": "metadataInitializer",
          "type": "bytes"
        }
      ],
      "name": "setupDropsContract",
      "outputs": [
        {
          "internalType": "address",
          "name": "",
          "type": "address"
        }
      ],
      "stateMutability": "nonpayable",
      "type": "function"
    },
    {
      "inputs": [
        {
          "internalType": "address",
          "name": "newOwner",
          "type": "address"
        }
      ],
      "name": "transferOwnership",
      "outputs": [],
      "stateMutability": "nonpayable",
      "type": "function"
    }
  ],
  "transactionHash": "0xe8fc86a396fcd226d092266e9eacbd54b73ab1d66d96a889132632380b765af3",
  "args": [
    0,
    "0x0000000000000000000000000000000000000000",
    "0x5FC8d32690cc91D4c39d9d3abcBD16989F875707",
    "0xDc64a140Aa3E981100a9becA4E685f962f0cF6C9"
  ],
  "numDeployments": 2,
  "solcInputHash": "e6942aee1cce7da0d7f610c15516e8fc",
  "bytecode": "0x60c060405234801561001057600080fd5b5060405162005aac38038062005aac833981016040819052610031916100d2565b61003a3361006a565b600193909355600280546001600160a01b0319166001600160a01b0393841617905581166080521660a052610127565b600080546001600160a01b038381166001600160a01b0319831681178455604051919092169283917f8be0079c531659141344cd1fd0a4f28419497f9722a3daafe3b4186f6b6457e09190a35050565b6001600160a01b03811681146100cf57600080fd5b50565b600080600080608085870312156100e857600080fd5b8451935060208501516100fa816100ba565b604086015190935061010b816100ba565b606086015190925061011c816100ba565b939692955090935050565b60805160a0516159516200015b60003960008181610149015261038f01526000818161017101526103fc01526159516000f3fe60806040523480156200001157600080fd5b5060043610620000f15760003560e01c8063765b0c361162000097578063ebd9b872116200006e578063ebd9b87214620001f3578063eddd0d9c146200020a578063ef1ff6521462000221578063f2fde38b146200023857600080fd5b8063765b0c3614620001b65780637d60fc6e14620001ca5780638da5cb5b14620001e157600080fd5b8063686ce43511620000cc578063686ce435146200016b578063715018a6146200019357806371525d8c146200019f57600080fd5b806308d6a61314620000f657806313966db5146200012a5780634abde7291462000143575b600080fd5b6200010d620001073660046200095b565b6200024f565b6040516001600160a01b0390911681526020015b60405180910390f35b6200013460015481565b60405190815260200162000121565b6200010d7f000000000000000000000000000000000000000000000000000000000000000081565b6200010d7f000000000000000000000000000000000000000000000000000000000000000081565b6200019d62000341565b005b6200010d620001b036600462000b36565b62000359565b6002546200010d906001600160a01b031681565b6200010d620001db36600462000c31565b620003c4565b6000546001600160a01b03166200010d565b6200019d6200020436600462000d74565b62000432565b6200019d6200021b36600462000d9b565b6200046b565b6200010d6200023236600462000db5565b6200047a565b6200019d6200024936600462000d74565b6200060e565b600080600154600260009054906101000a90046001600160a01b03168c8c8c8a6040516200027d9062000761565b6200028e9695949392919062000ecb565b604051809103906000f080158015620002ab573d6000803e3d6000fd5b506040517fb34081ff0000000000000000000000000000000000000000000000000000000081529091506001600160a01b0382169063b34081ff90620002fe9088908c908c908a908a9060040162000f26565b600060405180830381600087803b1580156200031957600080fd5b505af11580156200032e573d6000803e3d6000fd5b50929d9c50505050505050505050505050565b6200034b620006a8565b62000357600062000704565b565b60008083836040516020016200037192919062000fc1565b6040516020818303038152906040529050620003b58b8b8b898c8c8b7f0000000000000000000000000000000000000000000000000000000000000000896200047a565b9b9a5050505050505050505050565b600080848385604051602001620003de9392919062000ff3565b6040516020818303038152906040529050620004228c8c8c8a8d8d8c7f0000000000000000000000000000000000000000000000000000000000000000896200047a565b9c9b505050505050505050505050565b6200043c620006a8565b6002805473ffffffffffffffffffffffffffffffffffffffff19166001600160a01b0392909216919091179055565b62000475620006a8565b600155565b604080516001808252818301909252600091829190816020015b60608152602001906001900390816200049457505085516020808801516040808a015160608b015160808c015160a08d015160c08e015185516cffffffffffffffffffffffffff90991660248a015263ffffffff909616604489015267ffffffffffffffff93841660648901529183166084880152821660a48701521660c485015260e48085019290925280518085039092018252610104909301909252810180517bffffffffffffffffffffffffffffffffffffffffffffffffffffffff167fffdb71630000000000000000000000000000000000000000000000000000000017905281519192509082906000906200059257620005926200103c565b60200260200101819052506000620005b28c8c8c8b8b8e888c8c6200024f565b60405167ffffffffffffffff8a1681529091506001600160a01b0382169033907fad59ebba8bfb06ba01a615a611467ca3bef86a275bd5e9704d3b295112550ba59060200160405180910390a39b9a5050505050505050505050565b62000618620006a8565b6001600160a01b0381166200069a5760405162461bcd60e51b815260206004820152602660248201527f4f776e61626c653a206e6577206f776e657220697320746865207a65726f206160448201527f646472657373000000000000000000000000000000000000000000000000000060648201526084015b60405180910390fd5b620006a58162000704565b50565b6000546001600160a01b03163314620003575760405162461bcd60e51b815260206004820181905260248201527f4f776e61626c653a2063616c6c6572206973206e6f7420746865206f776e6572604482015260640162000691565b600080546001600160a01b0383811673ffffffffffffffffffffffffffffffffffffffff19831681178455604051919092169283917f8be0079c531659141344cd1fd0a4f28419497f9722a3daafe3b4186f6b6457e09190a35050565b6148c9806200105383390190565b634e487b7160e01b600052604160045260246000fd5b60405160e0810167ffffffffffffffff81118282101715620007ab57620007ab6200076f565b60405290565b604051601f8201601f1916810167ffffffffffffffff81118282101715620007dd57620007dd6200076f565b604052919050565b600082601f830112620007f757600080fd5b813567ffffffffffffffff8111156200081457620008146200076f565b62000829601f8201601f1916602001620007b1565b8181528460208386010111156200083f57600080fd5b816020850160208301376000918101602001919091529392505050565b6001600160a01b0381168114620006a557600080fd5b80356200087f816200085c565b919050565b803567ffffffffffffffff811681146200087f57600080fd5b803561ffff811681146200087f57600080fd5b600082601f830112620008c257600080fd5b8135602067ffffffffffffffff80831115620008e257620008e26200076f565b8260051b620008f3838201620007b1565b93845285810183019383810190888611156200090e57600080fd5b84880192505b858310156200094f578235848111156200092e5760008081fd5b6200093e8a87838c0101620007e5565b835250918401919084019062000914565b98975050505050505050565b60008060008060008060008060006101208a8c0312156200097b57600080fd5b893567ffffffffffffffff808211156200099457600080fd5b620009a28d838e01620007e5565b9a5060208c0135915080821115620009b957600080fd5b620009c78d838e01620007e5565b9950620009d760408d0162000872565b9850620009e760608d0162000884565b9750620009f760808d016200089d565b965062000a0760a08d0162000872565b955060c08c013591508082111562000a1e57600080fd5b62000a2c8d838e01620008b0565b945062000a3c60e08d0162000872565b93506101008c013591508082111562000a5457600080fd5b5062000a638c828d01620007e5565b9150509295985092959850929598565b803563ffffffff811681146200087f57600080fd5b600060e0828403121562000a9b57600080fd5b62000aa562000785565b905081356cffffffffffffffffffffffffff8116811462000ac557600080fd5b815262000ad56020830162000a73565b602082015262000ae86040830162000884565b604082015262000afb6060830162000884565b606082015262000b0e6080830162000884565b608082015262000b2160a0830162000884565b60a082015260c082013560c082015292915050565b60008060008060008060008060006101e08a8c03121562000b5657600080fd5b893567ffffffffffffffff8082111562000b6f57600080fd5b62000b7d8d838e01620007e5565b9a5060208c013591508082111562000b9457600080fd5b62000ba28d838e01620007e5565b995062000bb260408d0162000872565b985062000bc260608d0162000884565b975062000bd260808d016200089d565b965062000be260a08d0162000872565b955062000bf38d60c08e0162000a88565b94506101a08c013591508082111562000c0b57600080fd5b62000c198d838e01620007e5565b93506101c08c013591508082111562000a5457600080fd5b6000806000806000806000806000806102008b8d03121562000c5257600080fd5b8a3567ffffffffffffffff8082111562000c6b57600080fd5b62000c798e838f01620007e5565b9b5060208d013591508082111562000c9057600080fd5b62000c9e8e838f01620007e5565b9a5062000cae60408e0162000872565b995062000cbe60608e0162000884565b985062000cce60808e016200089d565b975062000cde60a08e0162000872565b965062000cef8e60c08f0162000a88565b95506101a08d013591508082111562000d0757600080fd5b62000d158e838f01620007e5565b94506101c08d013591508082111562000d2d57600080fd5b62000d3b8e838f01620007e5565b93506101e08d013591508082111562000d5357600080fd5b5062000d628d828e01620007e5565b9150509295989b9194979a5092959850565b60006020828403121562000d8757600080fd5b813562000d94816200085c565b9392505050565b60006020828403121562000dae57600080fd5b5035919050565b60008060008060008060008060006101e08a8c03121562000dd557600080fd5b893567ffffffffffffffff8082111562000dee57600080fd5b62000dfc8d838e01620007e5565b9a5060208c013591508082111562000e1357600080fd5b62000e218d838e01620007e5565b995062000e3160408d0162000872565b985062000e4160608d0162000872565b975062000e5160808d0162000884565b965062000e6160a08d016200089d565b955062000e728d60c08e0162000a88565b945062000c196101a08d0162000872565b6000815180845260005b8181101562000eab5760208185018101518683018201520162000e8d565b506000602082860101526020601f19601f83011685010191505092915050565b86815260006001600160a01b03808816602084015260c0604084015262000ef660c084018862000e83565b838103606085015262000f0a818862000e83565b9582166080850152509290921660a09091015250949350505050565b600060a0820160a0835280885180835260c08501915060c08160051b86010192506020808b0160005b8381101562000f815760bf1988870301855262000f6e86835162000e83565b9550938201939082019060010162000f4f565b505067ffffffffffffffff8a1690860152505061ffff861660408401526001600160a01b038516606084015282810360808401526200094f818562000e83565b60408152600062000fd6604083018562000e83565b828103602084015262000fea818562000e83565b95945050505050565b60608152600062001008606083018662000e83565b82810360208401526200101c818662000e83565b9050828103604084015262001032818562000e83565b9695505050505050565b634e487b7160e01b600052603260045260246000fdfe61014060405260086080526203345060a0527ff0887ba65ee2024ea881d91b74c2450ef19e1557f03bed3ea9f16b037cbe2dc960c0527f5ebbf78043a2215b522b1366a193ec74dd1f54e441e841a87b9653246a9c49a660e0523480156200006657600080fd5b50604051620048c9380380620048c9833981016040819052620000899162000307565b838360026200009983826200044a565b506003620000a882826200044a565b506001600090815560016008556011805460ff191690556101008990526001600160a01b03881661012052620000e2925090508362000119565b620000ed8262000129565b600c80546001600160a01b0319166001600160a01b039290921691909117905550620005169350505050565b62000125828262000185565b5050565b600a546040516001600160a01b038084169216907f8be0079c531659141344cd1fd0a4f28419497f9722a3daafe3b4186f6b6457e090600090a3600a80546001600160a01b0319166001600160a01b0392909216919091179055565b60008281526009602090815260408083206001600160a01b038516845290915290205460ff16620001255760008281526009602090815260408083206001600160a01b03851684529091529020805460ff19166001179055620001e53390565b6001600160a01b0316816001600160a01b0316837f2f8788117e7eff1d82e926ec794901d17c78024a50270940304540a733656f0d60405160405180910390a45050565b6001600160a01b03811681146200023f57600080fd5b50565b634e487b7160e01b600052604160045260246000fd5b600082601f8301126200026a57600080fd5b81516001600160401b038082111562000287576200028762000242565b604051601f8301601f19908116603f01168101908282118183101715620002b257620002b262000242565b81604052838152602092508683858801011115620002cf57600080fd5b600091505b83821015620002f35785820183015181830184015290820190620002d4565b600093810190920192909252949350505050565b60008060008060008060c087890312156200032157600080fd5b865195506020870151620003358162000229565b60408801519095506001600160401b03808211156200035357600080fd5b620003618a838b0162000258565b955060608901519150808211156200037857600080fd5b506200038789828a0162000258565b93505060808701516200039a8162000229565b60a0880151909250620003ad8162000229565b809150509295509295509295565b600181811c90821680620003d057607f821691505b602082108103620003f157634e487b7160e01b600052602260045260246000fd5b50919050565b601f8211156200044557600081815260208120601f850160051c81016020861015620004205750805b601f850160051c820191505b8181101562000441578281556001016200042c565b5050505b505050565b81516001600160401b0381111562000466576200046662000242565b6200047e81620004778454620003bb565b84620003f7565b602080601f831160018114620004b657600084156200049d5750858301515b600019600386901b1c1916600185901b17855562000441565b600085815260208120601f198616915b82811015620004e757888601518255948401946001909101908401620004c6565b5085821015620005065787850151600019600388901b60f8161c191681555b5050505050600190811b01905550565b60805160a05160c05160e05161010051610120516142f3620005d66000396000818161099901528181610d9a0152818161308b015261312701526000818161082001528181610dc1015281816127d20152818161280d01528181612be60152612c21015260008181610a8301528181610f40015281816117c6015281816119a0015261251c015260008181610a2f01528181611f0c01526122f201526000818161187301526130b6015260008181613007015261303401526142f36000f3fe60806040526004361061032d5760003560e01c806370319970116101a5578063b8ae5a2c116100ec578063d547741f11610095578063e8a3d4851161006f578063e8a3d48514610ac5578063e985e9c514610ada578063efef39a114610b23578063ffdb716314610b3657600080fd5b8063d547741f14610a51578063e26bd34314610a71578063e58306f914610aa557600080fd5b8063c87b56dd116100c6578063c87b56dd146109bb578063d445b978146109db578063d539139314610a1d57600080fd5b8063b8ae5a2c14610947578063b9e7a58414610967578063c61e42e81461098757600080fd5b806395d89b411161014e578063ac9650d811610128578063ac9650d8146108e7578063b34081ff14610914578063b88d4fde1461093457600080fd5b806395d89b411461089d578063a217fddf146108b2578063a22cb465146108c757600080fd5b80637dd3bf5f1161017f5780637dd3bf5f1461080e5780638da5cb5b1461084257806391d148541461085757600080fd5b8063703199701461074b57806370a082311461076957806379502c551461078957600080fd5b806324d7806c1161027457806336568abe1161021d57806341e96eb1116101f757806341e96eb1146106d657806342842e0e146106eb57806361fea768146106fe5780636352211e1461072b57600080fd5b806336568abe146106815780633bcdcc87146106a15780633ccfd60b146106c157600080fd5b80632e706b5a1161024e5780632e706b5a1461062c5780632f2ff15d1461063f5780633474a4a61461065f57600080fd5b806324d7806c146105d957806325024a2b146105f95780632a55205a1461060c57600080fd5b806310a7eb5d116102d65780631d2c0b38116102b05780631d2c0b38146104cf57806323b872dd14610596578063248a9ca3146105a957600080fd5b806310a7eb5d1461047257806313af40351461049257806318160ddd146104b257600080fd5b8063074bff2311610307578063074bff23146103e6578063081812fc14610425578063095ea7b31461045d57600080fd5b806301ffc9a71461036e57806303ee2733146103a357806306fdde03146103c457600080fd5b366103695760405134815233907f8e47b87b0ef542cdfa1659c551d88bad38aa7f452d2bbb349ab7530dfec8be8f9060200160405180910390a2005b600080fd5b34801561037a57600080fd5b5061038e610389366004613734565b610b56565b60405190151581526020015b60405180910390f35b6103b66103b1366004613793565b610c37565b60405190815260200161039a565b3480156103d057600080fd5b506103d9610d06565b60405161039a919061382f565b3480156103f257600080fd5b50610406610401366004613842565b610d98565b604080516001600160a01b03909316835260208301919091520161039a565b34801561043157600080fd5b50610445610440366004613842565b610dec565b6040516001600160a01b03909116815260200161039a565b61047061046b366004613870565b610e49565b005b34801561047e57600080fd5b5061047061048d36600461389c565b610f0f565b34801561049e57600080fd5b506104706104ad36600461389c565b61100b565b3480156104be57600080fd5b5060015460005403600019016103b6565b3480156104db57600080fd5b50600d54600e54600f5461053d926cffffffffffffffffffffffffff811692600160681b820463ffffffff1692600160881b90920467ffffffffffffffff9081169281831692680100000000000000008104831692600160801b909104169087565b604080516cffffffffffffffffffffffffff909816885263ffffffff909616602088015267ffffffffffffffff948516958701959095529183166060860152821660808501521660a083015260c082015260e00161039a565b6104706105a43660046138b9565b611066565b3480156105b557600080fd5b506103b66105c4366004613842565b60009081526009602052604090206001015490565b3480156105e557600080fd5b5061038e6105f436600461389c565b61124a565b6103b661060736600461393f565b61128a565b34801561061857600080fd5b506104066106273660046139a0565b611338565b6103b661063a3660046139c2565b6113a3565b34801561064b57600080fd5b5061047061065a366004613a4f565b61147a565b34801561066b57600080fd5b506106746114a4565b60405161039a9190613a7f565b34801561068d57600080fd5b5061047061069c366004613a4f565b6115cb565b3480156106ad57600080fd5b506104706106bc366004613c0f565b611657565b3480156106cd57600080fd5b50610470611780565b3480156106e257600080fd5b5061047061196f565b6104706106f93660046138b9565b611afe565b34801561070a57600080fd5b506103b661071936600461389c565b60106020526000908152604090205481565b34801561073757600080fd5b50610445610746366004613842565b611b19565b34801561075757600080fd5b50600b546001600160a01b0316610445565b34801561077557600080fd5b506103b661078436600461389c565b611b24565b34801561079557600080fd5b50600b54600c546107ce916001600160a01b0380821692600160a01b830467ffffffffffffffff1692600160e01b900461ffff16911684565b604080516001600160a01b03958616815267ffffffffffffffff909416602085015261ffff9092169183019190915291909116606082015260800161039a565b34801561081a57600080fd5b506103b67f000000000000000000000000000000000000000000000000000000000000000081565b34801561084e57600080fd5b50610445611b8c565b34801561086357600080fd5b5061038e610872366004613a4f565b60009182526009602090815260408084206001600160a01b0393909316845291905290205460ff1690565b3480156108a957600080fd5b506103d9611ba5565b3480156108be57600080fd5b506103b6600081565b3480156108d357600080fd5b506104706108e2366004613c5f565b611bb4565b3480156108f357600080fd5b50610907610902366004613d31565b611c20565b60405161039a9190613d66565b34801561092057600080fd5b5061047061092f366004613de0565b611cd7565b610470610942366004613e85565b611e91565b34801561095357600080fd5b506103b6610962366004613ef1565b611edb565b34801561097357600080fd5b506103d9610982366004613f33565b612020565b34801561099357600080fd5b506104457f000000000000000000000000000000000000000000000000000000000000000081565b3480156109c757600080fd5b506103d96109d6366004613842565b612123565b3480156109e757600080fd5b506109fb6109f636600461389c565b6121ee565b604080518251815260208084015190820152918101519082015260600161039a565b348015610a2957600080fd5b506103b67f000000000000000000000000000000000000000000000000000000000000000081565b348015610a5d57600080fd5b50610470610a6c366004613a4f565b61229c565b348015610a7d57600080fd5b506103b67f000000000000000000000000000000000000000000000000000000000000000081565b348015610ab157600080fd5b506103b6610ac0366004613870565b6122c1565b348015610ad157600080fd5b506103d96123bf565b348015610ae657600080fd5b5061038e610af5366004613f68565b6001600160a01b03918216600090815260076020908152604080832093909416825291909152205460ff1690565b6103b6610b31366004613842565b61244a565b348015610b4257600080fd5b50610470610b51366004613f96565b6124eb565b6000610b61826126c0565b80610b9557507f8da5cb5b000000000000000000000000000000000000000000000000000000006001600160e01b03198316145b80610bc957507f2a55205a000000000000000000000000000000000000000000000000000000006001600160e01b03198316145b80610bfd57507f49064906000000000000000000000000000000000000000000000000000000006001600160e01b03198316145b80610c3157507f1a95c452000000000000000000000000000000000000000000000000000000006001600160e01b03198316145b92915050565b6000610c41612727565b600b548490600160a01b900467ffffffffffffffff16610c646000546000190190565b610c6e908361404a565b1115610c8d57604051630717c51360e41b815260040160405180910390fd5b610c95612780565b610cb25760405163f12dcc7f60e01b815260040160405180910390fd5b610cf28585858080601f0160208091040260200160405190810160405280939291908181526020018383808284376000920191909152506127b792505050565b915050610cff6001600855565b9392505050565b606060028054610d159061405d565b80601f0160208091040260200160405190810160405280929190818152602001828054610d419061405d565b8015610d8e5780601f10610d6357610100808354040283529160200191610d8e565b820191906000526020600020905b815481529060010190602001808311610d7157829003601f168201915b5050505050905090565b7f00000000000000000000000000000000000000000000000000000000000000006000610de5837f0000000000000000000000000000000000000000000000000000000000000000614091565b9050915091565b6000610df7826129c6565b610e2d576040517fcf4700e400000000000000000000000000000000000000000000000000000000815260040160405180910390fd5b506000908152600660205260409020546001600160a01b031690565b6000610e5482611b19565b9050336001600160a01b03821614610ea657610e708133610af5565b610ea6576040517fcfb3b94200000000000000000000000000000000000000000000000000000000815260040160405180910390fd5b600082815260066020526040808220805473ffffffffffffffffffffffffffffffffffffffff19166001600160a01b0387811691821790925591518593918516917f8c5be1e5ebec7d5bd14f71427d1e84f3dd0314c0f7b2291e5b200ac8c7c3b92591a4505050565b3360009081527fec8156718a8372b1db44bb411437d0870f3e3790d4a08526d024ce1b0b668f6b60205260409020547f00000000000000000000000000000000000000000000000000000000000000009060ff16158015610f8a5750600081815260096020908152604080832033845290915290205460ff16155b15610fb0576040516333ba055f60e21b8152600481018290526024015b60405180910390fd5b600c805473ffffffffffffffffffffffffffffffffffffffff19166001600160a01b0384169081179091556040513391907f70a7ea5c664ab9c21baf3da59bb2f1e1ca33557b08a0031fab4f17076744995190600090a35050565b3360009081527fec8156718a8372b1db44bb411437d0870f3e3790d4a08526d024ce1b0b668f6b602052604090205460ff1661105a576040516302bd6bd160e01b815260040160405180910390fd5b611063816129fb565b50565b600061107182612a64565b9050836001600160a01b0316816001600160a01b0316146110be576040517fa114810000000000000000000000000000000000000000000000000000000000815260040160405180910390fd5b60008281526006602052604090208054338082146001600160a01b03881690911417611124576110ee8633610af5565b611124576040517f59c896be00000000000000000000000000000000000000000000000000000000815260040160405180910390fd5b6001600160a01b038516611164576040517fea553b3400000000000000000000000000000000000000000000000000000000815260040160405180910390fd5b801561116f57600082555b6001600160a01b038681166000908152600560205260408082208054600019019055918716808252919020805460010190554260a01b17600160e11b17600085815260046020526040812091909155600160e11b84169003611201576001840160008181526004602052604081205490036111ff5760005481146111ff5760008181526004602052604090208490555b505b83856001600160a01b0316876001600160a01b03167fddf252ad1be2c89b69c2b068fc378daa952ba7f163c4a11628f55a4df523b3ef60405160405180910390a4505050505050565b6001600160a01b03811660009081527fec8156718a8372b1db44bb411437d0870f3e3790d4a08526d024ce1b0b668f6b602052604081205460ff16610c31565b6000611294612727565b600b548690600160a01b900467ffffffffffffffff166112b76000546000190190565b6112c1908361404a565b11156112e057604051630717c51360e41b815260040160405180910390fd5b6112e8612aec565b61130557604051634af69e0d60e11b815260040160405180910390fd5b611322878787878760405180602001604052806000815250612b2e565b91505061132f6001600855565b95945050505050565b600c5460009081906001600160a01b0316611362575050600c546001600160a01b0316600061139c565b600c54600b546001600160a01b03909116906127109061138d90600160e01b900461ffff1686614091565b61139791906140a8565b915091505b9250929050565b60006113ad612727565b600b548890600160a01b900467ffffffffffffffff166113d06000546000190190565b6113da908361404a565b11156113f957604051630717c51360e41b815260040160405180910390fd5b611401612aec565b61141e57604051634af69e0d60e11b815260040160405180910390fd5b611462898989898989898080601f016020809104026020016040519081016040528093929190818152602001838380828437600092019190915250612b2e92505050565b91505061146f6001600855565b979650505050505050565b60008281526009602052604090206001015461149581612d65565b61149f8383612d6f565b505050565b6040805161016081018252600080825260208201819052918101829052606081018290526080810182905260a0810182905260c0810182905260e0810182905261010081018290526101208101829052610140810191909152604051806101600160405280611511612780565b15158152602001611520612aec565b15158152600d546cffffffffffffffffffffffffff8116602083015267ffffffffffffffff600160881b820481166040840152600e54808216606085015268010000000000000000810482166080850152600160801b90041660a0830152600f5460c083015263ffffffff600160681b9091041660e0820152610100016115aa6000546000190190565b8152600b54600160a01b900467ffffffffffffffff16602090910152919050565b6001600160a01b03811633146116495760405162461bcd60e51b815260206004820152602f60248201527f416363657373436f6e74726f6c3a2063616e206f6e6c792072656e6f756e636560448201527f20726f6c657320666f722073656c6600000000000000000000000000000000006064820152608401610fa7565b6116538282612e11565b5050565b3360009081527fec8156718a8372b1db44bb411437d0870f3e3790d4a08526d024ce1b0b668f6b602052604090205460ff166116a6576040516302bd6bd160e01b815260040160405180910390fd5b600b805473ffffffffffffffffffffffffffffffffffffffff19166001600160a01b038416179055805115611734576040516342b53ffd60e11b81526001600160a01b0383169063856a7ffa9061170190849060040161382f565b600060405180830381600087803b15801561171b57600080fd5b505af115801561172f573d6000803e3d6000fd5b505050505b7f046c5d913c35948c3e0e44c3599eb14bf33b73f141fa8bb282b300414998b86833604080516001600160a01b03928316815291851660208301520160405180910390a1611653612e94565b611788612727565b3360008181527fec8156718a8372b1db44bb411437d0870f3e3790d4a08526d024ce1b0b668f6b6020526040902054479060ff1615801561180d57507f000000000000000000000000000000000000000000000000000000000000000060009081526009602090815260408083206001600160a01b038616845290915290205460ff16155b80156118275750600c546001600160a01b03838116911614155b1561185e576040517f1dab829b00000000000000000000000000000000000000000000000000000000815260040160405180910390fd5b600c546040516000916001600160a01b0316907f000000000000000000000000000000000000000000000000000000000000000090849084818181858888f193505050503d80600081146118ce576040519150601f19603f3d011682016040523d82523d6000602084013e6118d3565b606091505b505090508061190e576040517f39debd5b00000000000000000000000000000000000000000000000000000000815260040160405180910390fd5b600c54604080518481526000602082018190528183015290516001600160a01b039092169133917f8a95554e4c9dcaaf33f247387f2ee77390780487d3365e3a804788791a1df500919081900360600190a350505061196d6001600855565b565b3360009081527fec8156718a8372b1db44bb411437d0870f3e3790d4a08526d024ce1b0b668f6b60205260409020547f00000000000000000000000000000000000000000000000000000000000000009060ff161580156119ea5750600081815260096020908152604080832033845290915290205460ff16155b15611a0b576040516333ba055f60e21b815260048101829052602401610fa7565b600b54600160a01b900467ffffffffffffffff90811614611a58576040517fe742c08400000000000000000000000000000000000000000000000000000000815260040160405180910390fd5b60005460001901600b805467ffffffffffffffff92909216600160a01b027fffffffff0000000000000000ffffffffffffffffffffffffffffffffffffffff909216919091179055611aa73390565b600b54604051600160a01b90910467ffffffffffffffff1681526001600160a01b0391909116907fb6cc1e876b8d7479c8afe025a58658b0f3c3ec5bd0f28cb4261326b162069bf89060200160405180910390a250565b61149f83838360405180602001604052806000815250611e91565b6000610c3182612a64565b60006001600160a01b038216611b66576040517f8f4eb60400000000000000000000000000000000000000000000000000000000815260040160405180910390fd5b506001600160a01b031660009081526005602052604090205467ffffffffffffffff1690565b6000611ba0600a546001600160a01b031690565b905090565b606060038054610d159061405d565b3360008181526007602090815260408083206001600160a01b03871680855290835292819020805460ff191686151590811790915590519081529192917f17307eab39ab6107e8899845ad3d59bd9653f200f220920489ca2b5937696c31910160405180910390a35050565b6060815167ffffffffffffffff811115611c3c57611c3c613b4a565b604051908082528060200260200182016040528015611c6f57816020015b6060815260200190600190039081611c5a5790505b50905060005b8251811015611cd157611ca130848381518110611c9457611c946140ca565b6020026020010151612ee9565b828281518110611cb357611cb36140ca565b60200260200101819052508080611cc9906140e0565b915050611c75565b50919050565b601154600160ff90911610611d2e5760405162461bcd60e51b815260206004820152600b60248201527f696e697469616c697a65640000000000000000000000000000000000000000006044820152606401610fa7565b6011805460ff19166001179055845115611d6257611d4d600033612f0e565b611d5685611c20565b50611d62600033612e11565b61138861ffff84161180611d855750600b54611388600160e01b90910461ffff16115b15611dc0576040517f6680e9820000000000000000000000000000000000000000000000000000000081526113886004820152602401610fa7565b600b80546001600160a01b0384167fffff000000000000000000000000000000000000000000000000000000000000909116600160a01b67ffffffffffffffff8816027fffff0000ffffffffffffffff000000000000000000000000000000000000000016178117600160e01b61ffff871602179091556040516342b53ffd60e11b815263856a7ffa90611e5890849060040161382f565b600060405180830381600087803b158015611e7257600080fd5b505af1158015611e86573d6000803e3d6000fd5b505050505050505050565b611e9c848484611066565b6001600160a01b0383163b15611ed557611eb884848484612f18565b611ed5576040516368d2bf6b60e11b815260040160405180910390fd5b50505050565b3360009081527fec8156718a8372b1db44bb411437d0870f3e3790d4a08526d024ce1b0b668f6b60205260408120547f00000000000000000000000000000000000000000000000000000000000000009060ff16158015611f565750600081815260096020908152604080832033845290915290205460ff16155b15611f77576040516333ba055f60e21b815260048101829052602401610fa7565b600b548390600160a01b900467ffffffffffffffff16611f9a6000546000190190565b611fa4908361404a565b1115611fc357604051630717c51360e41b815260040160405180910390fd5b600054808581015b80831015612011576120068888848603818110611fea57611fea6140ca565b9050602002016020810190611fff919061389c565b6001613003565b600190920191611fcb565b50600054979650505050505050565b3360009081527fec8156718a8372b1db44bb411437d0870f3e3790d4a08526d024ce1b0b668f6b602052604090205460609060ff16612072576040516302bd6bd160e01b815260040160405180910390fd5b600b5460405160009182916001600160a01b03909116906120949086906140f9565b6000604051808303816000865af19150503d80600081146120d1576040519150601f19603f3d011682016040523d82523d6000602084013e6120d6565b606091505b509150915081612112576040517f97e71ac300000000000000000000000000000000000000000000000000000000815260040160405180910390fd5b61211a612e94565b9150505b919050565b606061212e826129c6565b612164576040517fa14c4b5000000000000000000000000000000000000000000000000000000000815260040160405180910390fd5b600b546040517fc87b56dd000000000000000000000000000000000000000000000000000000008152600481018490526001600160a01b039091169063c87b56dd90602401600060405180830381865afa1580156121c6573d6000803e3d6000fd5b505050506040513d6000823e601f3d908101601f19168201604052610c319190810190614115565b61221260405180606001604052806000815260200160008152602001600081525090565b604051806060016040528061224a846001600160a01b03166000908152600560205260409081902054901c67ffffffffffffffff1690565b81526001600160a01b038416600081815260106020908152604080832054828601819052938352600590915290819020549281019261229492911c67ffffffffffffffff16614183565b905292915050565b6000828152600960205260409020600101546122b781612d65565b61149f8383612e11565b3360009081527fec8156718a8372b1db44bb411437d0870f3e3790d4a08526d024ce1b0b668f6b60205260408120547f00000000000000000000000000000000000000000000000000000000000000009060ff1615801561233c5750600081815260096020908152604080832033845290915290205460ff16155b1561235d576040516333ba055f60e21b815260048101829052602401610fa7565b600b548390600160a01b900467ffffffffffffffff166123806000546000190190565b61238a908361404a565b11156123a957604051630717c51360e41b815260040160405180910390fd5b6123b38585613003565b60005495945050505050565b600b54604080517fe8a3d48500000000000000000000000000000000000000000000000000000000815290516060926001600160a01b03169163e8a3d4859160048083019260009291908290030181865afa158015612422573d6000803e3d6000fd5b505050506040513d6000823e601f3d908101601f19168201604052611ba09190810190614115565b6000612454612727565b600b548290600160a01b900467ffffffffffffffff166124776000546000190190565b612481908361404a565b11156124a057604051630717c51360e41b815260040160405180910390fd5b6124a8612780565b6124c55760405163f12dcc7f60e01b815260040160405180910390fd5b6124de83604051806020016040528060008152506127b7565b91505061211e6001600855565b3360009081527fec8156718a8372b1db44bb411437d0870f3e3790d4a08526d024ce1b0b668f6b60205260409020547f00000000000000000000000000000000000000000000000000000000000000009060ff161580156125665750600081815260096020908152604080832033845290915290205460ff16155b15612587576040516333ba055f60e21b815260048101829052602401610fa7565b600d80546cffffffffffffffffffffffffff8a167fffffffffffffffffffffffffffffff000000000000000000000000000000000090911617600160681b63ffffffff8a1602177fffffffffffffff0000000000000000ffffffffffffffffffffffffffffffffff16600160881b67ffffffffffffffff8981169190910291909117909155600e80548783167fffffffffffffffffffffffffffffffff00000000000000000000000000000000909116176801000000000000000087841602177fffffffffffffffff0000000000000000ffffffffffffffffffffffffffffffff16600160801b92861692909202919091179055600f829055336001600160a01b03167fc1ff5e4744ac8dd2b8027a10e3723b165975297501c71c4e7dcb8796d96375db60405160405180910390a25050505050505050565b60006001600160e01b031982167f7965db0b000000000000000000000000000000000000000000000000000000001480610c3157507f01ffc9a7000000000000000000000000000000000000000000000000000000006001600160e01b0319831614610c31565b6002600854036127795760405162461bcd60e51b815260206004820152601f60248201527f5265656e7472616e637947756172643a207265656e7472616e742063616c6c006044820152606401610fa7565b6002600855565b600d5460009042600160881b90910467ffffffffffffffff1611801590611ba0575050600e544267ffffffffffffffff9091161190565b600d546000906cffffffffffffffffffffffffff16836127f77f00000000000000000000000000000000000000000000000000000000000000008361404a565b6128019190614091565b341461287157836128327f00000000000000000000000000000000000000000000000000000000000000008361404a565b61283c9190614091565b6040517f6a1c179e000000000000000000000000000000000000000000000000000000008152600401610fa791815260200190565b600d54600160681b900463ffffffff16158015906128df5750600d543360009081526010602090815260408083205460059092529182902054600160681b90930463ffffffff169290918791901c67ffffffffffffffff166128d3919061404a565b6128dd9190614183565b115b15612916576040517f220ae94c00000000000000000000000000000000000000000000000000000000815260040160405180910390fd5b6000546129233386613003565b61292c85613079565b8185336001600160a01b03167f4e26b0356a15833a75d497ecc40ebbb716b99466ed0dba9454f1fff451e25a908460405161296991815260200190565b60405180910390a48351156129be578030336001600160a01b03167fb9490aee663998179ad13f9e1c1eb6189c71ad1a9ec87f33ad2766f98d9a268a88886040516129b5929190614196565b60405180910390a45b949350505050565b6000816001111580156129da575060005482105b8015610c31575050600090815260046020526040902054600160e01b161590565b600a546040516001600160a01b038084169216907f8be0079c531659141344cd1fd0a4f28419497f9722a3daafe3b4186f6b6457e090600090a3600a805473ffffffffffffffffffffffffffffffffffffffff19166001600160a01b0392909216919091179055565b60008180600111612aba57600054811015612aba5760008181526004602052604081205490600160e01b82169003612ab8575b8060000361211a575060001901600081815260046020526040902054612a97565b505b6040517fdf2d9b4200000000000000000000000000000000000000000000000000000000815260040160405180910390fd5b600e54600090426801000000000000000090910467ffffffffffffffff1611801590611ba0575050600e5442600160801b90910467ffffffffffffffff161190565b6000612baa84848080602002602001604051908101604052809392919081815260200183836020028082843760009201919091525050600f549150339050604080516001600160a01b03909216602083015281018a90526060810189905260800160405160208183030381529060405280519060200120613190565b612be0576040517f85b70e5200000000000000000000000000000000000000000000000000000000815260040160405180910390fd5b86612c0b7f00000000000000000000000000000000000000000000000000000000000000008761404a565b612c159190614091565b3414612c4657866128327f00000000000000000000000000000000000000000000000000000000000000008761404a565b3360009081526010602052604081208054899290612c6590849061404a565b909155505033600090815260106020526040902054861015612cb3576040517fa7b32bb100000000000000000000000000000000000000000000000000000000815260040160405180910390fd5b600054612cc03389613003565b612cc988613079565b8588336001600160a01b03167f4e26b0356a15833a75d497ecc40ebbb716b99466ed0dba9454f1fff451e25a9084604051612d0691815260200190565b60405180910390a482511561146f578030336001600160a01b03167fb9490aee663998179ad13f9e1c1eb6189c71ad1a9ec87f33ad2766f98d9a268a8b87604051612d52929190614196565b60405180910390a4979650505050505050565b61106381336131a6565b60008281526009602090815260408083206001600160a01b038516845290915290205460ff166116535760008281526009602090815260408083206001600160a01b03851684529091529020805460ff19166001179055612dcd3390565b6001600160a01b0316816001600160a01b0316837f2f8788117e7eff1d82e926ec794901d17c78024a50270940304540a733656f0d60405160405180910390a45050565b60008281526009602090815260408083206001600160a01b038516845290915290205460ff16156116535760008281526009602090815260408083206001600160a01b0385168085529252808320805460ff1916905551339285917ff6391f5c32d9c69d2a47ea670b442974b53935d1edc7fd64eb21e047a839171b9190a45050565b600054600019018015611063577f6bd5c950a8d8df17f772f5af37cb3655737899cbf903264b9795592da439661c6001612ece818461404a565b6040805192835260208301919091520160405180910390a150565b6060610cff83836040518060600160405280602781526020016142976027913961321b565b6116538282612d6f565b604051630a85bd0160e11b81526000906001600160a01b0385169063150b7a0290612f4d9033908990889088906004016141af565b6020604051808303816000875af1925050508015612f88575060408051601f3d908101601f19168201909252612f85918101906141e1565b60015b612fe6573d808015612fb6576040519150601f19603f3d011682016040523d82523d6000602084013e612fbb565b606091505b508051600003612fde576040516368d2bf6b60e11b815260040160405180910390fd5b805181602001fd5b6001600160e01b031916630a85bd0160e11b149050949350505050565b60007f000000000000000000000000000000000000000000000000000000000000000082116130325781613054565b7f00000000000000000000000000000000000000000000000000000000000000005b90506130608382613293565b61306a8183614183565b91505060008111613003575050565b600061308482610d98565b91505060007f00000000000000000000000000000000000000000000000000000000000000006001600160a01b0316827f000000000000000000000000000000000000000000000000000000000000000090604051600060405180830381858888f193505050503d8060008114613117576040519150601f19603f3d011682016040523d82523d6000602084013e61311c565b606091505b5050604080518481527f00000000000000000000000000000000000000000000000000000000000000006001600160a01b031660208201528215158183015290519192507f6f8da53cfedb8cc4f7935c3629624e50b63053c93bb2cad246aa4d3a2ba7d4ce919081900360600190a1505050565b60008261319d85846133c4565b14949350505050565b60008281526009602090815260408083206001600160a01b038516845290915290205460ff16611653576131d981613411565b6131e4836020613423565b6040516020016131f59291906141fe565b60408051601f198184030181529082905262461bcd60e51b8252610fa79160040161382f565b6060600080856001600160a01b03168560405161323891906140f9565b600060405180830381855af49150503d8060008114613273576040519150601f19603f3d011682016040523d82523d6000602084013e613278565b606091505b50915091506132898683838761364c565b9695505050505050565b60008054908290036132d1576040517fb562e8dd00000000000000000000000000000000000000000000000000000000815260040160405180910390fd5b6001600160a01b03831660008181526005602090815260408083208054680100000000000000018802019055848352600490915281206001851460e11b4260a01b178317905582840190839083907fddf252ad1be2c89b69c2b068fc378daa952ba7f163c4a11628f55a4df523b3ef8180a4600183015b81811461338057808360007fddf252ad1be2c89b69c2b068fc378daa952ba7f163c4a11628f55a4df523b3ef600080a4600101613348565b50816000036133bb576040517f2e07630000000000000000000000000000000000000000000000000000000000815260040160405180910390fd5b60005550505050565b600081815b8451811015613409576133f5828683815181106133e8576133e86140ca565b60200260200101516136c5565b915080613401816140e0565b9150506133c9565b509392505050565b6060610c316001600160a01b03831660145b60606000613432836002614091565b61343d90600261404a565b67ffffffffffffffff81111561345557613455613b4a565b6040519080825280601f01601f19166020018201604052801561347f576020820181803683370190505b5090507f3000000000000000000000000000000000000000000000000000000000000000816000815181106134b6576134b66140ca565b60200101907effffffffffffffffffffffffffffffffffffffffffffffffffffffffffffff1916908160001a9053507f780000000000000000000000000000000000000000000000000000000000000081600181518110613519576135196140ca565b60200101907effffffffffffffffffffffffffffffffffffffffffffffffffffffffffffff1916908160001a9053506000613555846002614091565b61356090600161404a565b90505b60018111156135fd577f303132333435363738396162636465660000000000000000000000000000000085600f16601081106135a1576135a16140ca565b1a60f81b8282815181106135b7576135b76140ca565b60200101907effffffffffffffffffffffffffffffffffffffffffffffffffffffffffffff1916908160001a90535060049490941c936135f68161427f565b9050613563565b508315610cff5760405162461bcd60e51b815260206004820181905260248201527f537472696e67733a20686578206c656e67746820696e73756666696369656e746044820152606401610fa7565b606083156136bb5782516000036136b4576001600160a01b0385163b6136b45760405162461bcd60e51b815260206004820152601d60248201527f416464726573733a2063616c6c20746f206e6f6e2d636f6e74726163740000006044820152606401610fa7565b50816129be565b6129be83836136f4565b60008183106136e1576000828152602084905260409020610cff565b6000838152602083905260409020610cff565b8151156137045781518083602001fd5b8060405162461bcd60e51b8152600401610fa7919061382f565b6001600160e01b03198116811461106357600080fd5b60006020828403121561374657600080fd5b8135610cff8161371e565b60008083601f84011261376357600080fd5b50813567ffffffffffffffff81111561377b57600080fd5b60208301915083602082850101111561139c57600080fd5b6000806000604084860312156137a857600080fd5b83359250602084013567ffffffffffffffff8111156137c657600080fd5b6137d286828701613751565b9497909650939450505050565b60005b838110156137fa5781810151838201526020016137e2565b50506000910152565b6000815180845261381b8160208601602086016137df565b601f01601f19169290920160200192915050565b602081526000610cff6020830184613803565b60006020828403121561385457600080fd5b5035919050565b6001600160a01b038116811461106357600080fd5b6000806040838503121561388357600080fd5b823561388e8161385b565b946020939093013593505050565b6000602082840312156138ae57600080fd5b8135610cff8161385b565b6000806000606084860312156138ce57600080fd5b83356138d98161385b565b925060208401356138e98161385b565b929592945050506040919091013590565b60008083601f84011261390c57600080fd5b50813567ffffffffffffffff81111561392457600080fd5b6020830191508360208260051b850101111561139c57600080fd5b60008060008060006080868803121561395757600080fd5b853594506020860135935060408601359250606086013567ffffffffffffffff81111561398357600080fd5b61398f888289016138fa565b969995985093965092949392505050565b600080604083850312156139b357600080fd5b50508035926020909101359150565b600080600080600080600060a0888a0312156139dd57600080fd5b873596506020880135955060408801359450606088013567ffffffffffffffff80821115613a0a57600080fd5b613a168b838c016138fa565b909650945060808a0135915080821115613a2f57600080fd5b50613a3c8a828b01613751565b989b979a50959850939692959293505050565b60008060408385031215613a6257600080fd5b823591506020830135613a748161385b565b809150509250929050565b81511515815261016081016020830151613a9d602084018215159052565b50604083015160408301526060830151613ac3606084018267ffffffffffffffff169052565b506080830151613adf608084018267ffffffffffffffff169052565b5060a0830151613afb60a084018267ffffffffffffffff169052565b5060c0830151613b1760c084018267ffffffffffffffff169052565b5060e083810151908301526101008084015190830152610120808401519083015261014092830151929091019190915290565b634e487b7160e01b600052604160045260246000fd5b604051601f8201601f1916810167ffffffffffffffff81118282101715613b8957613b89613b4a565b604052919050565b600067ffffffffffffffff821115613bab57613bab613b4a565b50601f01601f191660200190565b600082601f830112613bca57600080fd5b8135613bdd613bd882613b91565b613b60565b818152846020838601011115613bf257600080fd5b816020850160208301376000918101602001919091529392505050565b60008060408385031215613c2257600080fd5b8235613c2d8161385b565b9150602083013567ffffffffffffffff811115613c4957600080fd5b613c5585828601613bb9565b9150509250929050565b60008060408385031215613c7257600080fd5b8235613c7d8161385b565b915060208301358015158114613a7457600080fd5b600082601f830112613ca357600080fd5b8135602067ffffffffffffffff80831115613cc057613cc0613b4a565b8260051b613ccf838201613b60565b9384528581018301938381019088861115613ce957600080fd5b84880192505b85831015613d2557823584811115613d075760008081fd5b613d158a87838c0101613bb9565b8352509184019190840190613cef565b98975050505050505050565b600060208284031215613d4357600080fd5b813567ffffffffffffffff811115613d5a57600080fd5b6129be84828501613c92565b6000602080830181845280855180835260408601915060408160051b870101925083870160005b82811015613dbb57603f19888603018452613da9858351613803565b94509285019290850190600101613d8d565b5092979650505050505050565b803567ffffffffffffffff8116811461211e57600080fd5b600080600080600060a08688031215613df857600080fd5b853567ffffffffffffffff80821115613e1057600080fd5b613e1c89838a01613c92565b9650613e2a60208901613dc8565b95506040880135915061ffff82168214613e4357600080fd5b909350606087013590613e558261385b565b90925060808701359080821115613e6b57600080fd5b50613e7888828901613bb9565b9150509295509295909350565b60008060008060808587031215613e9b57600080fd5b8435613ea68161385b565b93506020850135613eb68161385b565b925060408501359150606085013567ffffffffffffffff811115613ed957600080fd5b613ee587828801613bb9565b91505092959194509250565b60008060208385031215613f0457600080fd5b823567ffffffffffffffff811115613f1b57600080fd5b613f27858286016138fa565b90969095509350505050565b600060208284031215613f4557600080fd5b813567ffffffffffffffff811115613f5c57600080fd5b6129be84828501613bb9565b60008060408385031215613f7b57600080fd5b8235613f868161385b565b91506020830135613a748161385b565b600080600080600080600060e0888a031215613fb157600080fd5b87356cffffffffffffffffffffffffff81168114613fce57600080fd5b9650602088013563ffffffff81168114613fe757600080fd5b9550613ff560408901613dc8565b945061400360608901613dc8565b935061401160808901613dc8565b925061401f60a08901613dc8565b915060c0880135905092959891949750929550565b634e487b7160e01b600052601160045260246000fd5b80820180821115610c3157610c31614034565b600181811c9082168061407157607f821691505b602082108103611cd157634e487b7160e01b600052602260045260246000fd5b8082028115828204841417610c3157610c31614034565b6000826140c557634e487b7160e01b600052601260045260246000fd5b500490565b634e487b7160e01b600052603260045260246000fd5b6000600182016140f2576140f2614034565b5060010190565b6000825161410b8184602087016137df565b9190910192915050565b60006020828403121561412757600080fd5b815167ffffffffffffffff81111561413e57600080fd5b8201601f8101841361414f57600080fd5b805161415d613bd882613b91565b81815285602083850101111561417257600080fd5b61132f8260208301602086016137df565b81810381811115610c3157610c31614034565b8281526040602082015260006129be6040830184613803565b60006001600160a01b038087168352808616602084015250836040830152608060608301526132896080830184613803565b6000602082840312156141f357600080fd5b8151610cff8161371e565b7f416363657373436f6e74726f6c3a206163636f756e74200000000000000000008152600083516142368160178501602088016137df565b7f206973206d697373696e6720726f6c652000000000000000000000000000000060179184019182015283516142738160288401602088016137df565b01602801949350505050565b60008161428e5761428e614034565b50600019019056fe416464726573733a206c6f772d6c6576656c2064656c65676174652063616c6c206661696c6564a26469706673582212208a88c13411fb740e267f015346b51986014bc13ae27389457aca90a1f0c6bc0064736f6c63430008110033a264697066735822122018ccc649d156327aa4a06008ca640ce3ec2f48fc798715667b0a0ab6d4f7b4f064736f6c63430008110033",
  "devdoc": {
    "kind": "dev",
    "methods": {
      "owner()": {
        "details": "Returns the address of the current owner."
      },
      "renounceOwnership()": {
        "details": "Leaves the contract without owner. It will not be possible to call `onlyOwner` functions. Can only be called by the current owner. NOTE: Renouncing ownership will leave the contract without an owner, thereby disabling any functionality that is only available to the owner."
      },
      "transferOwnership(address)": {
        "details": "Transfers ownership of the contract to a new account (`newOwner`). Can only be called by the current owner."
      }
    },
    "version": 1
  },
  "userdoc": {
    "kind": "user",
    "methods": {},
    "version": 1
  },
  "storageLayout": {
    "storage": [
      {
        "astId": 396,
        "contract": "src/NFTCreatorV1.sol:NFTCreatorV1",
        "label": "_owner",
        "offset": 0,
        "slot": "0",
        "type": "t_address"
      },
      {
        "astId": 6119,
        "contract": "src/NFTCreatorV1.sol:NFTCreatorV1",
        "label": "mintFee",
        "offset": 0,
        "slot": "1",
        "type": "t_uint256"
      },
      {
        "astId": 6121,
        "contract": "src/NFTCreatorV1.sol:NFTCreatorV1",
        "label": "mintFeeRecipient",
        "offset": 0,
        "slot": "2",
        "type": "t_address_payable"
      }
    ],
    "types": {
      "t_address": {
        "encoding": "inplace",
        "label": "address",
        "numberOfBytes": "20"
      },
      "t_address_payable": {
        "encoding": "inplace",
        "label": "address payable",
        "numberOfBytes": "20"
      },
      "t_uint256": {
        "encoding": "inplace",
        "label": "uint256",
        "numberOfBytes": "32"
      }
    }
  }
}