{
  "address": "0xd51212456A5d23cc854d98Ec215a04eFA111D4C9",
  "abi": [
    {
      "inputs": [],
      "name": "Access_OnlyAdmin",
      "type": "error"
    },
    {
      "inputs": [],
      "name": "MetadataFrozen",
      "type": "error"
    },
    {
      "anonymous": false,
      "inputs": [
        {
          "indexed": true,
          "internalType": "address",
          "name": "target",
          "type": "address"
        },
        {
          "indexed": false,
          "internalType": "string",
          "name": "metadataBase",
          "type": "string"
        },
        {
          "indexed": false,
          "internalType": "string",
          "name": "metadataExtension",
          "type": "string"
        },
        {
          "indexed": false,
          "internalType": "string",
          "name": "contractURI",
          "type": "string"
        },
        {
          "indexed": false,
          "internalType": "uint256",
          "name": "freezeAt",
          "type": "uint256"
        }
      ],
      "name": "MetadataUpdated",
      "type": "event"
    },
    {
      "anonymous": false,
      "inputs": [
        {
          "indexed": true,
          "internalType": "address",
          "name": "target",
          "type": "address"
        },
        {
          "indexed": false,
          "internalType": "bytes32",
          "name": "provenanceHash",
          "type": "bytes32"
        }
      ],
      "name": "ProvenanceHashUpdated",
      "type": "event"
    },
    {
      "inputs": [],
      "name": "contractURI",
      "outputs": [
        {
          "internalType": "string",
          "name": "",
          "type": "string"
        }
      ],
      "stateMutability": "view",
      "type": "function"
    },
    {
      "inputs": [
        {
          "internalType": "bytes",
          "name": "data",
          "type": "bytes"
        }
      ],
      "name": "initializeWithData",
      "outputs": [],
      "stateMutability": "nonpayable",
      "type": "function"
    },
    {
      "inputs": [
        {
          "internalType": "address",
          "name": "",
          "type": "address"
        }
      ],
      "name": "metadataBaseByContract",
      "outputs": [
        {
          "internalType": "string",
          "name": "base",
          "type": "string"
        },
        {
          "internalType": "string",
          "name": "extension",
          "type": "string"
        },
        {
          "internalType": "string",
          "name": "contractURI",
          "type": "string"
        },
        {
          "internalType": "uint256",
          "name": "freezeAt",
          "type": "uint256"
        }
      ],
      "stateMutability": "view",
      "type": "function"
    },
    {
      "inputs": [
        {
          "internalType": "address",
          "name": "",
          "type": "address"
        }
      ],
      "name": "provenanceHashes",
      "outputs": [
        {
          "internalType": "bytes32",
          "name": "",
          "type": "bytes32"
        }
      ],
      "stateMutability": "view",
      "type": "function"
    },
    {
      "inputs": [
        {
          "internalType": "uint256",
          "name": "tokenId",
          "type": "uint256"
        }
      ],
      "name": "tokenURI",
      "outputs": [
        {
          "internalType": "string",
          "name": "",
          "type": "string"
        }
      ],
      "stateMutability": "view",
      "type": "function"
    },
    {
      "inputs": [
        {
          "internalType": "address",
          "name": "target",
          "type": "address"
        },
        {
          "internalType": "string",
          "name": "baseUri",
          "type": "string"
        },
        {
          "internalType": "string",
          "name": "newContractUri",
          "type": "string"
        }
      ],
      "name": "updateMetadataBase",
      "outputs": [],
      "stateMutability": "nonpayable",
      "type": "function"
    },
    {
      "inputs": [
        {
          "internalType": "address",
          "name": "target",
          "type": "address"
        },
        {
          "internalType": "string",
          "name": "metadataBase",
          "type": "string"
        },
        {
          "internalType": "string",
          "name": "metadataExtension",
          "type": "string"
        },
        {
          "internalType": "string",
          "name": "newContractURI",
          "type": "string"
        },
        {
          "internalType": "uint256",
          "name": "freezeAt",
          "type": "uint256"
        }
      ],
      "name": "updateMetadataBaseWithDetails",
      "outputs": [],
      "stateMutability": "nonpayable",
      "type": "function"
    },
    {
      "inputs": [
        {
          "internalType": "address",
          "name": "target",
          "type": "address"
        },
        {
          "internalType": "bytes32",
          "name": "provenanceHash",
          "type": "bytes32"
        }
      ],
      "name": "updateProvenanceHash",
      "outputs": [],
      "stateMutability": "nonpayable",
      "type": "function"
    }
  ],
  "transactionHash": "0xa7bfcbf0c29b049ad3c56c61347e12d6bfa04f3871d1fa73393326d12bb8f407",
  "args": [],
  "numDeployments": 1,
  "solcInputHash": "4f5948489c408dfb5f1dd098ca1442f7",
  "bytecode": "0x608060405234801561001057600080fd5b50611117806100206000396000f3fe608060405234801561001057600080fd5b50600436106100885760003560e01c8063c87b56dd1161005b578063c87b56dd146100f4578063cc1306db14610114578063de5af49b14610127578063e8a3d4851461015557600080fd5b806342495a951461008d578063856a7ffa146100a257806391074f98146100b5578063af806d56146100e1575b600080fd5b6100a061009b366004610c21565b61015d565b005b6100a06100b0366004610cc2565b61020f565b6100c86100c3366004610d13565b61024c565b6040516100d89493929190610d7e565b60405180910390f35b6100a06100ef366004610dc9565b61040c565b610107610102366004610e3d565b6104cc565b6040516100d89190610e56565b6100a0610122366004610e69565b6106f5565b610147610135366004610d13565b60016020526000908152604090205481565b6040519081526020016100d8565b6101076107ec565b846001600160a01b03811633148015906101dc5750604051630935e01b60e21b81523360048201526001600160a01b038216906324d7806c90602401602060405180830381865afa1580156101b6573d6000803e3d6000fd5b505050506040513d601f19601f820116820180604052508101906101da9190610e93565b155b156101fa576040516302bd6bd160e01b815260040160405180910390fd5b61020786868686866108a1565b505050505050565b600080828060200190518101906102269190610efa565b915091506102473383604051806020016040528060008152508460006108a1565b505050565b60006020819052908152604090208054819061026790610f5e565b80601f016020809104026020016040519081016040528092919081815260200182805461029390610f5e565b80156102e05780601f106102b5576101008083540402835291602001916102e0565b820191906000526020600020905b8154815290600101906020018083116102c357829003601f168201915b5050505050908060010180546102f590610f5e565b80601f016020809104026020016040519081016040528092919081815260200182805461032190610f5e565b801561036e5780601f106103435761010080835404028352916020019161036e565b820191906000526020600020905b81548152906001019060200180831161035157829003601f168201915b50505050509080600201805461038390610f5e565b80601f01602080910402602001604051908101604052809291908181526020018280546103af90610f5e565b80156103fc5780601f106103d1576101008083540402835291602001916103fc565b820191906000526020600020905b8154815290600101906020018083116103df57829003601f168201915b5050505050908060030154905084565b826001600160a01b038116331480159061048b5750604051630935e01b60e21b81523360048201526001600160a01b038216906324d7806c90602401602060405180830381865afa158015610465573d6000803e3d6000fd5b505050506040513d601f19601f820116820180604052508101906104899190610e93565b155b156104a9576040516302bd6bd160e01b815260040160405180910390fd5b6104c68484604051806020016040528060008152508560006108a1565b50505050565b336000908152602081905260408082208151608081019092528054606093929190829082906104fa90610f5e565b80601f016020809104026020016040519081016040528092919081815260200182805461052690610f5e565b80156105735780601f1061054857610100808354040283529160200191610573565b820191906000526020600020905b81548152906001019060200180831161055657829003601f168201915b5050505050815260200160018201805461058c90610f5e565b80601f01602080910402602001604051908101604052809291908181526020018280546105b890610f5e565b80156106055780601f106105da57610100808354040283529160200191610605565b820191906000526020600020905b8154815290600101906020018083116105e857829003601f168201915b5050505050815260200160028201805461061e90610f5e565b80601f016020809104026020016040519081016040528092919081815260200182805461064a90610f5e565b80156106975780601f1061066c57610100808354040283529160200191610697565b820191906000526020600020905b81548152906001019060200180831161067a57829003601f168201915b5050505050815260200160038201548152505090508060000151516000036106be57600080fd5b80516106c9846109b3565b6020808401516040516106de94939201610f98565b604051602081830303815290604052915050919050565b816001600160a01b03811633148015906107745750604051630935e01b60e21b81523360048201526001600160a01b038216906324d7806c90602401602060405180830381865afa15801561074e573d6000803e3d6000fd5b505050506040513d601f19601f820116820180604052508101906107729190610e93565b155b15610792576040516302bd6bd160e01b815260040160405180910390fd5b6001600160a01b03831660008181526001602052604090819020849055517ff2e078c4022bfd6c56addd06540a4a5dd4252b6b2c424b6840c184063f48fc27906107df9085815260200190565b60405180910390a2505050565b3360009081526020819052604081206002018054606092919061080e90610f5e565b80601f016020809104026020016040519081016040528092919081815260200182805461083a90610f5e565b80156108875780601f1061085c57610100808354040283529160200191610887565b820191906000526020600020905b81548152906001019060200180831161086a57829003601f168201915b50505050509050805160000361089c57600080fd5b919050565b80158015906108af57504281115b156108e6576040517feef043fe00000000000000000000000000000000000000000000000000000000815260040160405180910390fd5b604080516080810182528581526020808201869052818301859052606082018490526001600160a01b038816600090815290819052919091208151819061092d9082611021565b50602082015160018201906109429082611021565b50604082015160028201906109579082611021565b5060608201518160030155905050846001600160a01b03167f5eff125d5659803f33dbda215d6e8bfe0a404fd213a9ecb5e61973ee16cb17e7858585856040516109a49493929190610d7e565b60405180910390a25050505050565b606060006109c083610a53565b600101905060008167ffffffffffffffff8111156109e0576109e0610b4d565b6040519080825280601f01601f191660200182016040528015610a0a576020820181803683370190505b5090508181016020015b600019017f3031323334353637383961626364656600000000000000000000000000000000600a86061a8153600a8504945084610a1457509392505050565b6000807a184f03e93ff9f4daa797ed6e38ed64bf6a1f0100000000000000008310610a9c577a184f03e93ff9f4daa797ed6e38ed64bf6a1f010000000000000000830492506040015b6d04ee2d6d415b85acef81000000008310610ac8576d04ee2d6d415b85acef8100000000830492506020015b662386f26fc100008310610ae657662386f26fc10000830492506010015b6305f5e1008310610afe576305f5e100830492506008015b6127108310610b1257612710830492506004015b60648310610b24576064830492506002015b600a8310610b30576001015b92915050565b80356001600160a01b038116811461089c57600080fd5b634e487b7160e01b600052604160045260246000fd5b604051601f8201601f1916810167ffffffffffffffff81118282101715610b8c57610b8c610b4d565b604052919050565b600067ffffffffffffffff821115610bae57610bae610b4d565b50601f01601f191660200190565b6000610bcf610bca84610b94565b610b63565b9050828152838383011115610be357600080fd5b828260208301376000602084830101529392505050565b600082601f830112610c0b57600080fd5b610c1a83833560208501610bbc565b9392505050565b600080600080600060a08688031215610c3957600080fd5b610c4286610b36565b9450602086013567ffffffffffffffff80821115610c5f57600080fd5b610c6b89838a01610bfa565b95506040880135915080821115610c8157600080fd5b610c8d89838a01610bfa565b94506060880135915080821115610ca357600080fd5b50610cb088828901610bfa565b95989497509295608001359392505050565b600060208284031215610cd457600080fd5b813567ffffffffffffffff811115610ceb57600080fd5b8201601f81018413610cfc57600080fd5b610d0b84823560208401610bbc565b949350505050565b600060208284031215610d2557600080fd5b610c1a82610b36565b60005b83811015610d49578181015183820152602001610d31565b50506000910152565b60008151808452610d6a816020860160208601610d2e565b601f01601f19169290920160200192915050565b608081526000610d916080830187610d52565b8281036020840152610da38187610d52565b90508281036040840152610db78186610d52565b91505082606083015295945050505050565b600080600060608486031215610dde57600080fd5b610de784610b36565b9250602084013567ffffffffffffffff80821115610e0457600080fd5b610e1087838801610bfa565b93506040860135915080821115610e2657600080fd5b50610e3386828701610bfa565b9150509250925092565b600060208284031215610e4f57600080fd5b5035919050565b602081526000610c1a6020830184610d52565b60008060408385031215610e7c57600080fd5b610e8583610b36565b946020939093013593505050565b600060208284031215610ea557600080fd5b81518015158114610c1a57600080fd5b600082601f830112610ec657600080fd5b8151610ed4610bca82610b94565b818152846020838601011115610ee957600080fd5b610d0b826020830160208701610d2e565b60008060408385031215610f0d57600080fd5b825167ffffffffffffffff80821115610f2557600080fd5b610f3186838701610eb5565b93506020850151915080821115610f4757600080fd5b50610f5485828601610eb5565b9150509250929050565b600181811c90821680610f7257607f821691505b602082108103610f9257634e487b7160e01b600052602260045260246000fd5b50919050565b60008451610faa818460208901610d2e565b845190830190610fbe818360208901610d2e565b8451910190610fd1818360208801610d2e565b0195945050505050565b601f82111561024757600081815260208120601f850160051c810160208610156110025750805b601f850160051c820191505b818110156102075782815560010161100e565b815167ffffffffffffffff81111561103b5761103b610b4d565b61104f816110498454610f5e565b84610fdb565b602080601f831160018114611084576000841561106c5750858301515b600019600386901b1c1916600185901b178555610207565b600085815260208120601f198616915b828110156110b357888601518255948401946001909101908401611094565b50858210156110d15787850151600019600388901b60f8161c191681555b5050505050600190811b0190555056fea264697066735822122090e0982c239df0472805c2c28359a2d84e34a7f094b6c29e9cc7a75e2c5e51ca64736f6c63430008110033",
  "devdoc": {
    "kind": "dev",
    "methods": {
      "contractURI()": {
        "details": "reverts if a contract uri is not provided",
        "returns": {
          "_0": "contract uri for the contract metadata"
        }
      },
      "initializeWithData(bytes)": {
        "params": {
          "data": "passed in for initialization"
        }
      },
      "tokenURI(uint256)": {
        "details": "reverts if a contract uri is not set",
        "returns": {
          "_0": "token URI for the given token ID and contract (set by msg.sender)"
        }
      },
      "updateMetadataBase(address,string,string)": {
        "params": {
          "baseUri": "new base URI",
          "newContractUri": "new contract URI (can be an empty string)"
        }
      },
      "updateMetadataBaseWithDetails(address,string,string,string,uint256)": {
        "params": {
          "freezeAt": "time to freeze the contract metadata at (set to 0 to disable)",
          "metadataBase": "new base URI to update metadata with",
          "metadataExtension": "new extension to append to base metadata URI",
          "target": "target contract to update metadata for"
        }
      },
      "updateProvenanceHash(address,bytes32)": {
        "params": {
          "provenanceHash": "provenance hash to set",
          "target": "target address to update"
        }
      }
    },
    "version": 1
  },
  "userdoc": {
    "events": {
      "MetadataUpdated(address,string,string,string,uint256)": {
        "notice": "Event to mark updated metadata information"
      },
      "ProvenanceHashUpdated(address,bytes32)": {
        "notice": "Hash to mark updated provenance hash"
      }
    },
    "kind": "user",
    "methods": {
      "contractURI()": {
        "notice": "A contract URI for the given drop contract"
      },
      "initializeWithData(bytes)": {
        "notice": "Standard init for drop metadata from root drop contract"
      },
      "metadataBaseByContract(address)": {
        "notice": "NFT metadata by contract"
      },
      "provenanceHashes(address)": {
        "notice": "Optional provenance hashes for NFT metadata by contract"
      },
      "tokenURI(uint256)": {
        "notice": "A token URI for the given drops contract"
      },
      "updateMetadataBase(address,string,string)": {
        "notice": "Update metadata base URI and contract URI"
      },
      "updateMetadataBaseWithDetails(address,string,string,string,uint256)": {
        "notice": "Update metadata base URI, extension, contract URI and freezing detailsUpdate metadata base URI, extension, contract URI and freezing detailsUpdate metadata base URI, extension, contract URI and freezing detailsUpdate metadata base URI, extension, contract URI and freezing detailsUpdate metadata base URI, extension, contract URI and freezing detailsUpdate metadata base URI, extension, contract URI and freezing detailsUpdate metadata base URI, extension, contract URI and freezing detailsUpdate metadata base URI, extension, contract URI and freezing details"
      },
      "updateProvenanceHash(address,bytes32)": {
        "notice": "Update the provenance hash (optional) for a given nft"
      }
    },
    "notice": "Drops metadata system",
    "version": 1
  },
  "storageLayout": {
    "storage": [
      {
        "astId": 6609,
        "contract": "src/metadata/DropMetadataRenderer.sol:DropMetadataRenderer",
        "label": "metadataBaseByContract",
        "offset": 0,
        "slot": "0",
        "type": "t_mapping(t_address,t_struct(MetadataURIInfo)6603_storage)"
      },
      {
        "astId": 6614,
        "contract": "src/metadata/DropMetadataRenderer.sol:DropMetadataRenderer",
        "label": "provenanceHashes",
        "offset": 0,
        "slot": "1",
        "type": "t_mapping(t_address,t_bytes32)"
      }
    ],
    "types": {
      "t_address": {
        "encoding": "inplace",
        "label": "address",
        "numberOfBytes": "20"
      },
      "t_bytes32": {
        "encoding": "inplace",
        "label": "bytes32",
        "numberOfBytes": "32"
      },
      "t_mapping(t_address,t_bytes32)": {
        "encoding": "mapping",
        "key": "t_address",
        "label": "mapping(address => bytes32)",
        "numberOfBytes": "32",
        "value": "t_bytes32"
      },
      "t_mapping(t_address,t_struct(MetadataURIInfo)6603_storage)": {
        "encoding": "mapping",
        "key": "t_address",
        "label": "mapping(address => struct DropMetadataRenderer.MetadataURIInfo)",
        "numberOfBytes": "32",
        "value": "t_struct(MetadataURIInfo)6603_storage"
      },
      "t_string_storage": {
        "encoding": "bytes",
        "label": "string",
        "numberOfBytes": "32"
      },
      "t_struct(MetadataURIInfo)6603_storage": {
        "encoding": "inplace",
        "label": "struct DropMetadataRenderer.MetadataURIInfo",
        "members": [
          {
            "astId": 6596,
            "contract": "src/metadata/DropMetadataRenderer.sol:DropMetadataRenderer",
            "label": "base",
            "offset": 0,
            "slot": "0",
            "type": "t_string_storage"
          },
          {
            "astId": 6598,
            "contract": "src/metadata/DropMetadataRenderer.sol:DropMetadataRenderer",
            "label": "extension",
            "offset": 0,
            "slot": "1",
            "type": "t_string_storage"
          },
          {
            "astId": 6600,
            "contract": "src/metadata/DropMetadataRenderer.sol:DropMetadataRenderer",
            "label": "contractURI",
            "offset": 0,
            "slot": "2",
            "type": "t_string_storage"
          },
          {
            "astId": 6602,
            "contract": "src/metadata/DropMetadataRenderer.sol:DropMetadataRenderer",
            "label": "freezeAt",
            "offset": 0,
            "slot": "3",
            "type": "t_uint256"
          }
        ],
        "numberOfBytes": "128"
      },
      "t_uint256": {
        "encoding": "inplace",
        "label": "uint256",
        "numberOfBytes": "32"
      }
    }
  }
}